:020000040001F9
:100000003DB8F396000001000008000020AD040098
:1000100000010000000000000000000000000000DF
:1000200000000000000000000000000000000000D0
:1000300000000000000000000000000000000000C0
:1000400000000000000000000000000000000000B0
:1000500000000000000000000000000000000000A0
:10080000F00C01208D2D0300FF940400792D0300CE
:10081000792D0300792D0300792D0300792D030034
:100820000000000000000000000000005D2E03003A
:10083000792D03000000000099300300792D03009A
:100840005531030055310300553103005531030084
:100850005531030055310300553103005531030074
:100860005531030055310300553103005531030064
:100870005531030055310300553103005531030054
:100A500055310300D3CA040055310300553103005A
:100A60005531030055310300BDCA04005531030060
:100A70005531030055310300553103005531030052
:100A80005531030055310300553103005531030042
:100A90005531030055310300553103005531030032
:100AA0005531030055310300553103005531030022
:100AB0005531030055310300553103005531030012
:100AC0005531030055310300553103005531030002
:100AD00055310300553103005531030055310300F2
:100AE00055310300553103005531030055310300E2
:100AF00055310300553103005531030055310300D2
:100B000055310300553103005531030055310300C1
:100B100055310300553103005531030055310300B1
:100B200055310300553103005531030055310300A1
:100B30005531030055310300553103005531030091
:100B40005531030055310300553103005531030081
:100B50005531030055310300553103005531030071
:100B60005531030055310300553103005531030061
:100B70005531030055310300553103005531030051
:100B80005531030055310300553103005531030041
:100B90005531030055310300553103005531030031
:100BA0005531030055310300553103005531030021
:100BB0005531030055310300553103005531030011
:100BC0005531030055310300553103005531030001
:100BD00055310300E9CA04005531030055310300C3
:100BE00055310300553103005531030055310300E1
:100BF00055310300553103005531030055310300D1
:100C000055310300553103005531030055310300C0
:100C100055310300553103005531030055310300B0
:100C200055310300553103005531030055310300A0
:100C30005531030055310300553103005531030090
:100C40005531030055310300553103005531030080
:100C50005531030055310300553103005531030070
:100C60005531030055310300553103005531030060
:100C7000553103005531030055310300FFFFFFFFDD
:100C8000054B00221B78826001330260034A4260F8
:100C9000C371FF2303727047F80E00208001080023
:100CA000064A074B02604FF426729B788280082226
:100CB000C371002382710372704700BFBF6C0200D2
:100CC000F80E0020064A074B02604FF44472DB78AE
:100CD00082800822C371002382710372704700BFB3
:100CE000396A0200F80E0020064A074B02604FF4F2
:100CF000B072DB7A82800822C371FF238271037293
:100D0000704700BF45640200F80E00202DE9F34152
:100D1000C41D0028064624F007040CBF002020460E
:100D200000F08CFC071E04DA6FF00B0002B0BDE887
:100D3000F081374DE988A88803316B7A03302A7A2D
:100D400089B280B211F03EFA0028EDDB3C44A9786C
:100D5000EB78002E04F10304194424F0030400FB93
:100D600001F10CBF0020204600F0EEFD20440EB93A
:100D70000028D9DBEA7A0446B2B1EB7B697C1344E4
:100D80001944FF29D0D80330002EAA89C9B220F017
:100D900003040CBF0020204600F048FE0028C3DBFF
:100DA00004440EB9002CBFDB012000F03DFCB0B1C3
:100DB000A97BA1B195F82A3033B340234FF4817257
:100DC0000734002E24F007040CBF0020204603F057
:100DD00041F90028A8DB04440EB9002CA4DBAB7A4F
:100DE000FBB1EB7AB3B10734002EA97A24F00704E3
:100DF0000CBF0020204607F0EFF8002894DB0444E5
:100E00007EB9002C0DDA8FE725232822D8E700BF12
:100E1000F80E0020012000F007FC10B1AB7B002B86
:100E2000E1D1734B1B6893B1A97D81B10334002ECE
:100E3000EA7D24F003040CBF0020204698470028D8
:100E4000FFF672AF044416B9002CFFF66DAF694B84
:100E50001B688BB1297C79B10334002E24F0030484
:100E60000CBF0020204698470028FFF65DAF0444E1
:100E700016B9002CFFF658AF5F4B1F68B7B1697CFD
:100E8000A1B10334002E2B7D24F0030408BF002001
:100E9000009318BF2046EB7CAA7CB8470028FFF6D9
:100EA00043AF044416B9002CFFF63EAF072000F014
:100EB000BBFB98B1A97D89B10334002E2A7E24F0B2
:100EC00003040CBF0020204600F09EFE0028FFF621
:100ED0002BAF044416B9002CFFF626AFB6FA86F7FE
:100EE00095F823007F09A0B103346B7FA97E24F01D
:100EF000070419443B4644F00404C9B2224600F0FA
:100F0000C3FE0028FFF610AF044416B9002CFFF60C
:100F10000BAF95F8241000294CD004F10708002EDF
:100F2000EA8C28F007080CBF0020404611F05EF95B
:100F3000041EFFF6F9AE4444002E3ED1002CFFF60D
:100F4000F3AEA97F002945D095F82230002B41D07F
:100F50002A8C0734002E02F1240224F007080CBF6B
:100F60000020404692B211F041F90028FFF6DCAEB5
:100F7000404416B90028FFF6D7AE03302B7FA97E78
:100F800020F0070019443B4640F0040495F8220085
:100F9000C9B2224600F06AFE0028FFF6C5AE04443E
:100FA00086B9002CFFF6C0AEEB6AF3B1C6B1EC62B5
:100FB0000020BBE6002EC4D08846E98C40460DF0E8
:100FC0004FFBBEE72A8C4046A97F083292B20DF053
:100FD0004DFBE9E7002EE7D0002211461046F6E768
:100FE00028343FF5A1AE2046A0E6002EE0D1FAE776
:100FF000541C0020581C00205C1C00201FB572B639
:10100000194B1C6BECB9BFF34F8F1849184BCA68CA
:1010100002F4E0621343CB60BFF34F8F00BFFDE7E4
:10102000B2FBF6F22B465D1C002AF9D1DBB203F1CC
:1010300010056D4405F80C2C0A2233B901A8A0470D
:10104000E1E7024600230A26EDE7013BDBB203F1AC
:1010500010050DEB0506B0FBF2F502FB1500303074
:1010600006F80C0C2846E8E7F80E002000ED00E03A
:101070000400FA0513B5124C68462389ADF8003018
:10108000E388ADF80430A388ADF8023005F018F815
:1010900018B1FA219C20FFF7B1FF207D05F066F81A
:1010A00008B1FD21F6E7E07C05F05AF808B1FE2111
:1010B000F0E794F829000BF0E9FE02B010BD00BF84
:1010C000F80E002070B50546002855D00FF0B8FC8A
:1010D00018B94FF0FF34204670BD0DF0F9FFB0F5A0
:1010E000FA7FF6D8264C012625630025284684F889
:1010F0003450257084F82A50E5620DF053FA1A2214
:10110000294604F10F0016F0DAFB1B230821032205
:10111000A3802846E3800223A1721F216372E37536
:10112000F72322722384FB23A2734922E3840A2338
:10113000A1812946E27484F82930A670E670E6722F
:10114000A674267603F042FC2A463146304603F068
:101150000FFC044620B140F2B5319C20FFF74EFF52
:10116000014603F021FCEFF3108572B600F0B2FDEA
:10117000002DB0D162B6AEE76FF01504ABE700BF4B
:10118000F80E002038B51446002840F0EE80784D67
:1011900095F83430032B00F0E58019B312B96FF0E5
:1011A000150038BD0139172900F2DF80DFE811F0A2
:1011B000180029002C0042006C00750094004800C3
:1011C00078007B008E004E005400620067009A0099
:1011D0009D00AC00AF00B200A300B500B900D20082
:1011E0001378AB700020FFF791FD0028B7BF0123F3
:1011F00002236FF00B0085F83430A8BF85F8343037
:10120000CFE71378EB70EDE71379002BC7D0537954
:10121000002BC4D01288FB2AC1D863881B3B9BB229
:10122000E02BBCD81A2ABAD92368A2886B60514B2C
:101230009A80D7E71378EA7B9342B0D3EB72D1E779
:101240001378EA7A9342AAD8EB73CBE71378EA7A59
:101250009342A4D86B74C5E71378002B9FD05378C2
:10126000013BDBB2F82B9AD8138892786B82424B01
:101270009A70B7E7107868750BF0B2FDB2E7137893
:10128000002B8CD02B76ADE7012000F0CDF9237830
:1012900008B1012B83D9AB73A4E71388AB81A1E715
:1012A0001378AB759EE7072000F0BEF918B92378D4
:1012B000012B7FF674AF072000F0B6F918B1237840
:1012C000002B3FF46CAF2378EB758BE71378082B7A
:1012D0003FF665AF2B7485E71388FF2B3FF65FAFB2
:1012E000AB727FE713786B767CE713780E2B3FF6B3
:1012F00056AFAB7676E72368204AC5F81E306368A0
:101300005360238913816DE71378EB766AE71378CE
:101310006B7767E713782B7764E7137885F82830C5
:1013200060E703F01FFB98B1007900F001026178DB
:10133000207803F01DFB00287FF433AF6378012B86
:101340007FF650AF0DF034F900287FF44BAF26E75D
:101350000246ECE713785A1E092A3FF620AF85F8BB
:1013600029303FE74FF0FF301BE76FF02C0018E704
:10137000F80E0020FC0E00200A0F0020160F00209F
:10138000F8B50D46064630B329B311F0070422D153
:10139000124F97F83430012B02D16FF00B00F8BDDB
:1013A000032B02D14FF0FF30F9E700F0C9FC002811
:1013B000F8D02846FFF7AAFC0028EEDB15F058FD10
:1013C0003046F96A04F060FFFFF754FE032320461D
:1013D00087F83430E3E76FF01500E0E7F80E0020FF
:1013E00010B5074C94F83430032B03D104F064FF9C
:1013F00005F0DCFD11F03DF8002084F8340010BD4C
:10140000F80E002008B5064B93F83430032B03D0B8
:1014100003F05EFF002008BD4FF0FF30FBE700BF88
:10142000F80E002008B504F0DBFE03490320BDE8F8
:10143000084000F0F1B800BFE90C010008B504F065
:10144000E3FE03490220BDE8084000F0E5B800BF14
:10145000C50C010008B504F0F9FE0549012000F0B3
:10146000DBF804490020BDE8084000F0D5B800BF13
:10147000810C0100A10C0100074B4FF0FF3141F638
:10148000FF72C3E9001205490022C1E900221F21B1
:10149000C3E90212704700BF60000020300F002037
:1014A0003F280CD801380B4BC0F3421200F01F004C
:1014B00053F8223023FA00F000F001007047FF28B3
:1014C00006D04038044BC0F3421200F01F00EFE793
:1014D0000120704760000020300F0020074B0146BC
:1014E000006849681A4603C240F48C2200201A6042
:1014F00041F0107242F4FF625A60704760000020B1
:101500000246034B0068516803C30020704700BFC8
:10151000300F00200246034B0068516803C30020CF
:10152000704700BF680000200138064BC0F342122C
:1015300000F01F0003EB82039B6823FA00F000F029
:1015400001007047600000200A8870B595B2C67C23
:10155000C2F30E020488023602F118033444C35A5F
:10156000A4B233442344013BB3FBF4F303FB042252
:10157000438892B29342044B8BBF2B40AB4313433F
:101580009BB20B8070BD00BF0080FFFF4A1E062A81
:1015900008B50346084604D84FF4D1711520FFF76B
:1015A0002DFD094A914202D940F2A311F6E711B983
:1015B00003B1196008BD2BB11B680022C3E90121EA
:1015C0001A1D1A600430F5E7FAFFFF7F10B5114BC2
:1015D00000EB41041A786389B3FBF2F303FB0223A7
:1015E000013A1A44B2F5706F0279807828BF00235F
:1015F0001A440B18B2FBF0F100FB11215B1AB3FB8C
:10160000F0F100FB113313446FEA43436FEA534395
:10161000638110BD380F0020024B03EB800359603B
:10162000704700BF380F0020034B03EB800358685E
:10163000003818BF01207047380F00202DE9F04F07
:1016400010F0070A85B0054604D040F26F1117204C
:10165000FFF7D4FC534F04464FF0010B07F154063B
:10166000B146B04657F8043B8DF80BA03BB101A83A
:1016700098479DF80A30082B01D9F521E7E79DF836
:101680000B1041BB05B131604F4506F10406E9D1AD
:10169000002D6FD00022DFF810911427964689F8AC
:1016A000002058F827A0013FBAF1000F55D09AF852
:1016B00004609AF802C0FF2E60D039460023481C0F
:1016C00038D19C44BCF1FF0F3FD90AB189F800E042
:1016D0004FF49A71BBE79DF80AC04B1D60465A0053
:1016E00004EB4303022838BF0220441E4042234437
:1016F000BDF808406444CCF1000C0340013C04EA0E
:101700000C04B4F5803F02D340F205119FE775B198
:101710009A1A32609170148082F803B09DF80C0020
:10172000107101984FEA104C1081A2F806C004FB1A
:101730000134A9E758F8210028B190F804B0B34566
:1017400004BF80781B180139B9E7DBB2E6458AF897
:1017500004303CBF5FFA8CFE01227B1CA1D10AB190
:1017600089F800E0142640F6FF6A58F82670B7B9E9
:10177000013EFAD2601B05B0BDE8F08F0023E5E71B
:1017800007EB410309F101093846A3F80AA0FFF766
:101790001DFF5FFA89F1BB788B42F1D8E8E74FF083
:1017A0000009F6E73C0F0020380F002038B54FF64F
:1017B000FF7302460380184B03EB8103986DA8B1B9
:1017C00084780379B3FBF4F104FB1133DBB21946DF
:1017D00000EB4105B5F90A50002D0EDB0131B1FBDC
:1017E000F4F504FB1511C9B28B42F1D1002038BDCC
:1017F0006381BDE8384010F0C1BC00EB410463894F
:10180000C3F30E031380C278002AF1D14FF4E571BF
:101810001720FFF7F3FB00BF380F00201C4B03EB32
:10182000810370B59C6D054644B3030404D54FF4A1
:10183000EC711720FFF7E2FB0146204610F081FC17
:10184000FF28014604D02046BDE8704010F096BC49
:10185000A078B5FBF0F300FB1353DBB219460A1D69
:1018600004EB4206B6F90260002E09DB0131B1FB40
:10187000F0F200FB1211C9B28B42F0D1002070BD12
:101880008B4201D00023E37004EB42025580DAE77B
:10189000380F0020094B03EB8103014610B59C6D06
:1018A000204610F04EFCFF28014604D02046BDE83B
:1018B000104010F063BC002010BD00BF380F0020A6
:1018C000F8B5104B074603EB810301469C6D20469B
:1018D00010F037FCFF28054611D0E288238953EA2F
:1018E000024606D00146204610F048FC0146384624
:1018F000B04720462946FFF769FE0020F8BD0520C5
:10190000FCE700BF380F002038B50E4B0446827943
:1019100003EB8203986D08B9052038BD8278E17920
:101920009142F9D24B1CE37100EB41035D89B3F99D
:101930000A30002BF3DBA58010F020FC2060002093
:10194000EBE700BF380F002070B5044610F003002D
:101950000E4603D04E211820FFF750FBFFF716FE6E
:10196000054624B1034831460460FFF70FFE2846C0
:1019700070BD00BFE40F00202DE9F14FDFF870B01B
:101980001E4607460D46DBF8003090469DF828A01D
:101990009DF82C901BB960211820FFF72FFB5246B1
:1019A0000921404610F051FA4A4684B209213046D6
:1019B00010F04BFA81B2DBF80000214410F095FBE7
:1019C000386018B9286001B0BDE8F08F0444534670
:1019D000414609222C60386810F0FAF94B4609227A
:1019E0003146286801B0BDE8F04F10F0F1B900BFF2
:1019F000E40F002070B50E46044610F039FA054693
:101A0000304610F035FA044B2A1821461868BDE814
:101A1000704010F08FBB00BFE40F0020024B18682D
:101A200008B110F056BB7047E40F00201F2AF8B52C
:101A3000044613460ED89200033222F00303B3F596
:101A4000803F2DD2184DACB1A00710D068210920DD
:101A5000FFF7D4FAFF2B4FEA420204D9FF339A4230
:101A6000A8BF1A46E8E77C2AB8BF7C22E4E72970C1
:101A70006C602B8122F0030228230127120403FB50
:101A800001F06B680025120CEEB2B14200D8F8BD2F
:101A900014B126181F705E60104401352833F3E737
:101AA0004FF0FF30F3E700BFE80F0020154A002198
:101AB00070B553681578C8B2854203D8BA21092099
:101AC000FFF79CFA1C461846013114F8286B0EB932
:101AD0002346F0E70021997001241289996103F1EE
:101AE00026055C709208D96103F11E04596824F838
:101AF000022FA54243F8041F1144F8D1002343618B
:101B0000037070BDE80F00200A4B1B89B3F5FF7FFF
:101B10004FEA930006D25A089B1A9BB2984238BFEC
:101B200018467047B3F5EE6F01D8FF22F4E740F294
:101B30007263F3E7E80F00204B782DE9F041064689
:101B40000C4602F0040702F0FB05E3B1A5BBFF233E
:101B5000A3707B0804EB57073A7D032A02D1022DBC
:101B600018BF0133E2180121117503F10C010022A5
:101B700004EB830324F811205B68A27030463360C5
:101B8000B280BDE8F081002DE1D1012301F11E02F8
:101B90008D6120464B7004F1260C1A4BCD611B89D8
:101BA00049689B0822F8023F944540F8041F1944F5
:101BB000F8D100236361CAE7D1F804801422002120
:101BC000A018617015F07BFE0E4B1B89B3F5FF7FEB
:101BD0000FD25A089B1A9BB208EB0301C4F8048089
:101BE0002384A1606284C4F80C80A3842161E28410
:101BF000ADE7B3F5EE6F4FF0FF02EBD940F2726341
:101C0000EAE700BFE80F00202DE9F84305460C463F
:101C1000F7200521914610F018F9061E21DB1DB9A9
:101C200006FB04F0BDE8F88315F0030703D0982104
:101C30001920FFF7E3F9DFF83080C8F81050A8F852
:101C40001460BBB29C42EBD9B8F814504B46D8F89C
:101C500010000522F72107FB0500013710F0B8F846
:101C6000EFE74FF0FF30DDE7FC0F002007B5CDE9CF
:101C700000230B4603490246081D10F0D4FB03B0B5
:101C80005DF804FB1410002013B5064CCDE90023C9
:101C90000B46024604F1080104F10C0010F0C3FBEE
:101CA00002B010BD1410002008B54B1E032B03D941
:101CB00023219020FFF7A2F90028054A0CBF052335
:101CC0000C2303EB8103053323F00103137008BDDC
:101CD00024100020114B01224FF0FF3000215A60E8
:101CE000C3F80803C3F80015C3F804255A6040F68A
:101CF000FE72C3F808034020C3F8001503F57033E3
:101D00000749C3F80825C1F88800BFF34F8FBFF318
:101D10006F8FC1F88801C3F8082570470060045030
:101D200000E100E002680020014B1A60704700BF2C
:101D300028100020014B1B68184700BF2810002006
:101D4000024B1868003818BF012070472810002087
:101D50000A4606489C2302F8033BC368C1F80330D7
:101D60000369536043699360704700BF2C100020E3
:101D7000024B5A8C02435A845B6A18472C1000208D
:101D8000014B00215B6A18472C10002010B5154C40
:101D90000CF09EF80CF0C8FB208DFFF7F1FF237EBE
:101DA00063B12246104904F1190052F80C3BE3607C
:101DB00063685360A368936013F03AF9218DE06A79
:101DC00006F060FAE36AB3F8AA0006F0BBF8636BAA
:101DD00094F8301094F831009847002384F8383094
:101DE00010BD00BF2C100020511D0100034B93F8C3
:101DF00038300BB1FFF7CABF704700BF2C1000206E
:101E00002DE9F041DFF8808005460E4608F12C00F0
:101E100011F0CBF9044618B101242046BDE8F08149
:101E2000D8F82C3093F8A8704FB1012D07D1B8F82D
:101E300022301A0703D598F83930002BECD1012E47
:101E4000EAD8D8F83C30284698470028E4D098F8DB
:101E50003030002BE0D167B9012DDED1B8F8223047
:101E6000002BD9D198F84030002BD6D198F84140BA
:101E700007E0002DD1D1B8F822309B07EED598F8B5
:101E8000394084F00104C8E72C10002070B5204CC4
:101E90000646636DE56A63644FF4817394F85800F5
:101EA000A4F848302B7D95F8211100EB83002EB962
:101EB000FF2803D195F820318B4201D00BF09CFC18
:101EC0002B7DFBB1E06D0BF02BFFE16D606C0CF036
:101ED000B1FA66B995F82131033B012BB5F8E4302E
:101EE0008CBF00202820184480B20BF07DFFB5F88D
:101EF000E0000BF041FC00200BF0B4FF022384F85B
:101F0000383070BD606C0BF00BFF0CF00DFBE0E7A0
:101F10002C10002008B5094B93F83820022A04D071
:101F200040F257312720FFF769F8DA7A42F00102D0
:101F3000DA72BDE80840FFF729BF00BF2C1000206F
:101F400010B590F86A1086B0D1B9C2880B460591D9
:101F50000021CDE903110C4991F85840029400F199
:101F600090040194C96A91F8A810003918BF0121A2
:101F7000009100F1800102200CF06CF906B010BD58
:101F8000D0E91E23E3E700BF2C1000202DE9F0412B
:101F9000274C06460F4694F83830012B5FFA83F839
:101FA00004D040F60C112720FFF728F8E56A2B79BA
:101FB00053B1002104202971FFF7DAFEE36A93F898
:101FC000A8300BB185F8058094F860308BB92B7A76
:101FD000052B0ED117490220FFF7CAFEE36A93F8DA
:101FE000A83033B1E36E1B789A1E5342534184F8F4
:101FF00039301EB1BDE8F041FFF7C8BE002FF9D05F
:1020000031463046FFF7FCFE0028F3D12B7DE46A11
:1020100013B12846FFF794FF94F821210120B4F86A
:10202000E21014F04DFF0020BDE8F041FFF72EBF95
:102030002C100020981000207FB590F86A10D1B9BC
:10204000C2880B4605910021CDE90311FB210291C5
:1020500000F1900101910949C96A91F8A810B1FAFB
:1020600081F14909009100F1800104200CF0F2F89F
:1020700007B05DF804FBD0E91C23E3E72C10002037
:102080001E4A10B5546E41782378C90003F0F3035B
:1020900001F008010B438178890001F004010B4332
:1020A000C178090103F0EC0301F010010B43017842
:1020B00001F003010B432370B2F870306370022308
:1020C000516EA2F8683004790B786001012C23F07E
:1020D000200300F0200043EA00030B700CD1D36A08
:1020E00093F8BA2093F8BB30032A03F01F0308BF0C
:1020F000002243EA82138B7010BD00BF2C10002019
:10210000F7B5184C0646656F0DB1E36C23B940F680
:10211000C4012720FEF772FFB4F8503001F003012C
:102120002F466B702B7823F003030B4307F8033B18
:102130003846B4F85020E16C0EF0ECFD0DF10202CF
:1021400001A9A06F6564E7640FF0B9FF01980FF073
:10215000A4FF0122B4F850103060A06F0FF048FFC8
:1021600003B0F0BD2C1000202DE9F04FAC4C87B02F
:10217000D4F82C8098F8201158B998F8142094F8C5
:10218000583003EB8203FF2B03D198F821318B42A7
:1021900002D0FF200BF030FB002304AA02A9A148C3
:1021A00004938DF8143084F8603001AB10F0F2FF26
:1021B0000746002845D0029ABDF8043022B940F203
:1021C00013412720FEF71AFF6266A4F8703003B1AE
:1021D000D31CE366012384F860309DF8133004A813
:1021E000003B18BF012384F8403098F81330002BCF
:1021F00000F01C81B4F87030002B00F01781FFF75D
:102200003FFFE06D0BF08CFD9DF81420E16D003A6E
:10221000606E18BF01220BF023FF18B9616EE06DEC
:102220000CF092F8B8F8E2000BF0A6FA01200BF0DF
:1022300019FE012384F8883084F8383007B0BDE8EF
:10224000F08FE66A8DF80300337AADF80600062BAE
:1022500000F2CA80DFE803F004CBA1A1C8B8B8003F
:1022600094F87F300DF1060103A8A6F81031ADF8FF
:10227000063004F07BFA38B1039D2DB1012384F8B8
:102280008030052333729CE0E36A93F85130002BD1
:102290006BD10DF103020DF10601D4F884000FF0AB
:1022A0000EFE0546002860D09DF80370FFB1014680
:1022B000D4F884000FF0EDFE0FF0EFFED0F800B080
:1022C000D0F804A081465BEA0A0348D1002389F8CC
:1022D000003089F8013089F8023089F8033089F834
:1022E000043089F8053089F8063089F80730BDF8E0
:1022F0000630002B40D1012333720123002784F8DC
:102300008030BDF806306566A4F8703003B1EB1C70
:10231000E366727A357A8DF81120022DB27A8DF843
:10232000122004D0053D012D8CBF012503258DF819
:102330001050002F5ED000209DF810308DF8130053
:10234000032B6BD1E36E1B781B2B67D1012106F1A8
:10235000BA000BF099FA01238DF814303DE714F020
:1023600000FF83457AEB0101B0D2002301222E4DFC
:10237000ADF806303272C6E79DF803301BB92B80EA
:10238000AB700323B8E72B7803F00303012BF8D0DD
:10239000022333720023B375AFE7B6F810310DF1A5
:1023A00003020DF10601D4F88400ADF806300FF0F9
:1023B00086FD054610B940F2C35102E7012384F8B7
:1023C0008030BDF806309EE70DF1060103A804F049
:1023D000CDF908B1039D15B940F2D251F1E60123C0
:1023E00084F8803006234DE740F2DC51E9E60E4DDB
:1023F000002388E7032D02D11B78022B9BD0D4F851
:1024000084000FF0B4FD38B9032D94D004F0CAF95C
:1024100080F00100C0B28FE701208DE700239BE729
:102420002C10002058100020A8100020FFF728FED4
:10243000606E0BF075FC0CF077F89DF81410606E70
:10244000003918BF012114F048FDEBE62DE9F04FEB
:10245000B04C87B00027804694F83830E56A022BEC
:10246000019105F1A80ACDE9027704D040F6AD113B
:102470002720FEF7C3FD616C03200B784A780144E6
:10248000A4F84800E16403EA0001A4F850208DF8A4
:102490001010C3F3C0018DF81110C3F380018DF843
:1024A0001210C3F30011C3F340138DF813108DF80D
:1024B0001430B8F1000F00F00C8104A904F12C00D5
:1024C00010F06AFE064630B9B4F8501009B3A06F98
:1024D0000FF06EFD0746238D9DF8121043F4007334
:1024E000676723856B7A0133DAB203F001039942FF
:1024F0004AD12B7A33B3032B6A720CD8012B21D02B
:1025000002A9D4F884000FF0FCFCA0B940F2D47109
:10251000AEE70746DFE7053B012B02D940F2B37176
:10252000A6E704F031F910B940F2DE71A0E700210E
:102530000820FFF71DFCD5E91C32013342F10002EF
:10254000C5E91C320021E36A297293F8A8302BB147
:102550006B791BB110206971FFF70AFC238D4FF0D6
:10256000000B43F4006323852B7DDBB1B4F85030BE
:10257000C3B10BF0F7FF0328FBD0022806D1FFF709
:1025800005FC07B0BDE8F08FC346EDE750B9AB7A64
:102590009DF8112003F001039A4203D1012384F82E
:1025A0003130ECE7B4F85070E6B19DF81330591EA5
:1025B0004B424B4184F84130002F40F0B780002758
:1025C000B946019B002B00F0B8800BF081FCB9F1FB
:1025D000000F00F01E819DF8101003A8FFF790FD7A
:1025E0000127C9E0AB7A9DF8112003F001039A425C
:1025F00023D19DF810307FB35A1E012A2CD8238D89
:1026000095F8149043F4805323850BF0CBF80328FE
:1026100094F8893007D1B9F1000F0CBF1F221B229B
:10262000934228BF1346B4F850209A4208D994F830
:10263000303043F0100384F830304FF000091EE0D2
:10264000636F002BF9D094F88A301BB12020FFF77C
:1026500097FBF2E79DF81030AA7A032B02F10102F2
:10266000AA722CD05A1E012A1DD8002FE5D0C146CF
:10267000D5E91E32013342F10002C5E91E32626F14
:102680009DF81310002A56D1B4F85020B2FA82F205
:102690005209012914BF002202F001023746002628
:1026A00084F841208DE7002FC7D0002BC5D1D5E994
:1026B0001E32013342F10002C5E91E32BDE7238D0F
:1026C0000120154943F4805328712385FFF750FBFF
:1026D000EDE72B7D0BB10BF05FFF94F88B300133EE
:1026E00084F88B30238D43F48063238595F8213162
:1026F000033B012B12D80BF055F8032812D1B4F884
:1027000050604FF000091B2ECB4694BF00260126D7
:10271000B5E700BF2C1000207810002004F0A0FDC9
:102720000028E8D10026B146B346A8E7238D43F43C
:102730008053238543E70122ABE794F88B100120F7
:10274000FFF75EFB00287FF440AFEA7C12B1284619
:10275000FFF772FC002095F82021B5F8E01014F086
:10276000AFFB0020FFF700FDB9F1000F5AD09DF834
:10277000101003A8FFF7C4FC238D5A0606D440208E
:10278000FFF7FEFA238D43F040032385BBF1000FD2
:1027900010D0EB884BB9E36A93F8A8302BB1B4F8AA
:1027A0000530B4F80720134304D0B4F809300133DE
:1027B000A4F80930B8F1000F3CD0B4F8053001336B
:1027C000A4F80530002384F88B301D4805F0A8FBE1
:1027D000029830B10FF061FC00220272514604F001
:1027E00007FD039B33B100221A720C225146039855
:1027F00004F0CCFC002F7FF4C2AE238D1B063FF506
:10280000C0AE8020FFF7BCFA238D43F08003238500
:10281000B7E6002E3FF4E4AE0A49A1F1200010F023
:10282000BDFCDDE6002EA7D00649A1F1200010F086
:10283000B5FCA1E7B4F807300133A4F80730C4E7CA
:102840005810002078100020064B10B593F838205F
:1028500002F0FF0422B91C7605F00CFD204610BDE5
:102860000C24FBE72C100020094B0A4A10B51A6013
:10287000FFF7EAFF20B14FF4B1712720FEF7BEFB4E
:10288000054C03F035FD606503F036FDE06510BDD5
:10289000601C0020D42A01002C100020F8B5794CCF
:1028A000054694F8386006F0FF0016B909B102B188
:1028B00023B94FF420712720FEF7A0FB63639DF836
:1028C0001830616284F88A30E26384F8300084F85A
:1028D0008B0084F8310084F888006084208584F8B7
:1028E000400084F8410084F8800084F83900606674
:1028F000E066A4F870006064E064A4F85000E5624B
:102900000AF0E4FF0BF010FE95F928010BF042F8F5
:10291000D5F8D460D5F8CC000BF042F830460BF077
:10292000E3F995F825000BF045F8B5F8E030622B97
:1029300003D9B5F8E230622B01D80AF023FFE36A2D
:1029400093F8A860002E40F0858013F0D2F995F836
:1029500020214D4B4FF47A7153F8223003F5FA736E
:10296000B3FBF1F35233191830460BF031F8474BF3
:1029700018680BF0BFF9D5F8C030C4F88430D5F82A
:10298000C430A367AB7B243B072B6BD9EB7B243B89
:10299000072B67D9B5F8F230B5F8F80095F8201193
:1029A000984228BF1846042908BF032111F05FFE92
:1029B000034695F8F400984228BF184695F8F03081
:1029C00080B2984200D3C3B295F8211105F1E80016
:1029D00084F87F3012F0ADFB95F821112F7D03298B
:1029E000B5F8FC6008BF042111F041FE0FB90430B6
:1029F00080B2864228BF0646F6B284F8896004F0A9
:102A00002FFC28B104F032FC864238BF0646F6B2ED
:102A100084F8586010F0C5FBE36A93F8A8301BBB3C
:102A2000EB7C13B12846FFF707FB0120FFF79CFB67
:102A3000002323606360A360EB886380B5F8AA304D
:102A4000238095F825302371D5F824310BB101226C
:102A50001A60F8BD13F04DF995F8212100F17101CC
:102A6000012082E71B23AFE72B7D13B12846FFF738
:102A700067FA0120FFF70AFAE36AD3F8F0010BF0D6
:102A800081F9D5E72C100020B0200500601C002043
:102A9000014B93F8880070472C100020054A138DD5
:102AA00092F8800003F4805110B113F4C06F00D18C
:102AB000080B70472C100020024B93F82900C0F33C
:102AC000C00070472C100020014B93F88B0070471A
:102AD0002C100020151F01004D2401008D1F010046
:102AE000ED1D01000D4B0321186830B50D4690F81F
:102AF000A52090F849400132B2FBF5F303EB430304
:102B0000D31ADAB244FA03F3DB0703D4013911F024
:102B1000FF01F0D180F8A52030BD00BFB810002023
:102B2000014B18680FF066BDB810002008B50AF018
:102B300083F9014B187008BD70000020064B10B4DB
:102B40001C68827C836804F1420194F841005DF8BE
:102B5000044B11F0DEBC00BFB8100020024B186817
:102B60006C3001F0DFBA00BFB810002038B50F4C50
:102B7000FFF7F4FF656801F08FFA63682860186852
:102B800020B940F2F5413220FEF738FA0FF00EFF7F
:102B900010B940F2F741F6E70BF0C2F800200BF055
:102BA00023F9636804221A7138BD00BFB8100020F1
:102BB00038B5194D04466B681B79022B04D940F6D1
:102BC000FC013220FEF71AFA2B68027C83F8A4205D
:102BD0001A44C168996692F87C2183F8782142688A
:102BE000C3F88820037A022B0ED00AF06FFE0BF098
:102BF0001FF90AF0C3F909480BF07CF808480BF0FC
:102C000073F808480AF0CCFE637C23B12B685B6E36
:102C10000BB101221A6038BDB8100020583B0100EA
:102C200055555500D6BE898E2DE9F341494D0023F7
:102C300007460E462C686372236DB3F8AA2093F8FA
:102C40002911D3F8C800628111F063FD2B6820843C
:102C50001A6DB2F8D010B2F8D22059849A844FF489
:102C60007F42DA844FF6FF721A8517B3012130468E
:102C700011F0EFFF33780146D8092C6894F84830FA
:102C800004F11402FBB10FF0F8FBE0B10B686361D3
:102C90008B88287B938004F10E0208284BD004F126
:102CA0000D0103F0FBFE88B941F213413220FEF71B
:102CB000A5F96946A86811F0C4FEAB6869461878A2
:102CC000C0F38010D9E700236361E2E72C68637BDF
:102CD00004F11A0843F0020363734FB30021304636
:102CE00011F0B7FF0368C4F81A308388A8F80430DD
:102CF0002B68186D93F95810A83004F01BF8286859
:102D0000154912F08CF928681449036D2A30B3F87C
:102D1000AA20A0F80920DB7DC37212F089F90221F4
:102D2000286801F0F3FCFFF719FF02B0BDE8F0815D
:102D300004F17800D6E794F87E306373A36FC4F88B
:102D40000E30B4F87C3093800023C4F81A30E3834B
:102D5000CEE700BFB8100020D72402009324020061
:102D600008B5074B93F900207F2A04D140F29B312C
:102D70003220FEF743F902707F221A7008BD00BFAF
:102D80007000002010B504788EB004F00F0404A980
:102D900022460FF032FEFFF7C9FE042C33D11B4C44
:102DA000059A2368107893F8781088422BD15078D0
:102DB00093F87910884226D1907893F87A10884257
:102DC00021D1D07893F87B1088421CD1107993F8E8
:102DD0007C10884217D1517993F87D20914212D10D
:102DE0009DF8212093F87E309A420CD10DF10F000E
:102DF000FFF7B6FF9DF90F3004A90093237C227BD7
:102E000060680FF0E5FD03200EB010BDB810002083
:102E10000D4A536810B51979022904D841F2BC4112
:102E20003220FEF7EBF81979082902D941F2BD41A9
:102E3000F6E71B79526903F180439268033BBDE8D2
:102E4000104052F823301847B810002010B5054C38
:102E5000637B2BB10AF0ECFF0AF090F80023637358
:102E600010BD00BFB810002010B5054C23792BB160
:102E70000AF0DEFF0AF082F80023237110BD00BFC4
:102E8000F017002010B5094CFFF7E0FF012263683E
:102E90001A7100232268A2F8793182F87B31FFF79A
:102EA0005DFE2068BDE8104010F039B9B810002070
:102EB00008B5FFF7CBFF044B00209968FFF7B4FE7D
:102EC000BDE80840FFF72CBEB8100020062938B531
:102ED0001D469DF8104019D908291BD802B18CB1A4
:102EE00043689BB912B94378DB0615D40B4B5B687A
:102EF00018680FF07CFD00B134B92DB903F0A4FDC2
:102F000000F00104204638BD0120F9E79DF8144087
:102F10002C43F7E70024F5E70124F3E7B81000207D
:102F200038B50D1E04460CBF05200320104403F0E5
:102F3000FBFD094B587370B15DB9033C012C8CBF8C
:102F40005024552409F0F4FF2046BDE838400AF02B
:102F500063BF4024F6E738BDB8100020F8B53D4CFB
:102F6000FFF7FCFD656801F097F863682860186852
:102F700020B940F252413220FEF740F80FF016FD22
:102F8000054610B940F25441F5E7236893F8A6309E
:102F90006BB123681A6D93F8A710C3F8102193F84A
:102FA00054200A4383F85420002283F8A620206886
:102FB00090F8A430034493F87C71636880F87871CA
:102FC0001A7952B11B79012B07D000210FF0F0FEC6
:102FD00018B9BDE8F840FFF755BF23681E4A93F8BB
:102FE000A530D05C0AF0E6FC236893F8A4201344D3
:102FF00093F87C61022E2BD004D8012E05D040F22C
:10300000F771B8E7F31E012BF9D801F03FF831460C
:103010000AF0F2FB28460AF083FE314601200AF04E
:10302000EBFC7B1E2A46384659425941FFF778FF90
:10303000626808210023517121732168D3801372C3
:10304000E37381F89530A373237403231371F8BDE0
:103050000D20DCE7B8100020C71D0500124A10B58E
:10306000536800B931B9184601F0AEF8BDE8104018
:10307000FFF708BF1979082904D841F28C413220A2
:10308000FDF7BCFF19790C2902D941F28D41F6E711
:103090001B79526903F180435268093BBDE8104037
:1030A00052F82330184700BFB8100020054B1A68AB
:1030B00092F85420920703D05B68186801F016B8A4
:1030C00098687047B810002070B5304D06466B68A0
:1030D0001A79032A0BD01A79042A08D0FFF7E6FFE1
:1030E000044640B941F2C4313220FDF787FF186829
:1030F0000FF05CFCF4E72B6893F8543013B941F2FD
:10310000CA31F1E776B111F050FE30B16B681A792F
:10311000022A0ED841F24A31E6E7204611F060FE5D
:103120000028F3D16B681A79022A17D841F2AA3124
:10313000DAE71A79082A02D941F24B31D4E71B7930
:1031400020466A6903F180431269033B52F8233039
:1031500098470C2812D941F2DD31C5E71A79082ABF
:1031600002D941F2AB31BFE71B796A6903F18043B1
:103170005269033B52F823309847EAE76B69DB68F2
:10318000BDE8704053F82030184700BFB810002049
:1031900007292DE9F043064687B00F46904645685B
:1031A000634C23D11DBB002A49D1D4E9001091F80A
:1031B000543013F0030218BF012213F0040382718C
:1031C00003D033785A1E53425341C37191F894305F
:1031D0004BB12368D3F89000503012F049FD10B97C
:1031E000636801221A7207B0BDE8F0833DB3294637
:1031F000707C0FF042F9072F814661D1637B63B188
:1032000058B1B8F1000F52D0656811F0B7F9636892
:1032100068715B7923730123A37363685879082865
:1032200055D17168707C12F019FD626805467168AD
:103230000532707C03F00EFC6368002859D02368C7
:1032400093F8540010F003000AD093F84A3039463E
:10325000019530466268927900924246FFF736FE49
:1032600062682368907193F8540010F0040009D04C
:1032700093F84B30394601953046D2790092424658
:10328000FFF724FE2B4B65681B68E8711BB14146B4
:1032900030469847287272686AB3717C236883F855
:1032A0007E10116899679288A3F87C2023E0236838
:1032B00093F878110129A7D1284603F007FC607321
:1032C000637B002BA9D0B9F1000FA6D09CE704AA1C
:1032D0000DF10F0103F0E2FB20B940F6A5313220D9
:1032E000FDF78CFE04A99DF80F0012F0B7FC05460F
:1032F000A5E7D88018726268137AB3B9D388003B07
:1033000018BF0123B06800283FF46DAF072F7FF48A
:103310006AAF517908293FF466AF002B3FF463AFE1
:1033200003F0F2FB0123E3735DE70123EAE700BF4B
:10333000B8100020641C00202DE9F04F044689B02D
:10334000062900F2C580DFE811F06000E700070001
:10335000C300C300C30026006E4D0AF0D5FB2F68E2
:1033600097F85430980714D06E68B3798BB10DF18B
:103370001F00FFF7F5FC9DF91F3002222146029342
:1033800030462B7B0193FF23009307F142030FF09C
:103390000FFB03201FE05F4D6E68B379002B00F038
:1033A00097802F6897F85420910717D50DF11F00CB
:1033B000FFF7D6FC9DF91F303046062202932146C6
:1033C0002B7B0193FF23009307F142030FF0F0FAE8
:1033D000002309202B7409B0BDE8F08FD30777D5FF
:1033E000570701D50AF090FB0DF11F00FFF7B8FC5D
:1033F0009DF91F202B6802922A7B42330192FF2203
:103400000092062221466868C1E7424D2B6893F876
:103410005420560737D56968CA79002A33D04268E4
:1034200093F85B001678864255D1567893F85C0085
:10343000864250D1967893F85D0086424BD1D6787B
:1034400093F85E00864246D1167993F85F00864273
:1034500041D1507993F8602090423CD1627C93F83E
:103460005A00101A4242424193F8560001284ED0A9
:10347000002A4CD193F84C30082B02D04A799A425A
:1034800045D00AF041FB6E68B379002B3DD02F6820
:1034900097F85420930720D50DF11F00FFF760FC2B
:1034A0009DF91F3030460022029321462B7B019369
:1034B000FF23009307F142030FF07AFA012309205A
:1034C0002B746B68DA79002A85D19B79002B82D125
:1034D0000AF01AFB5DE70022C6E7D60715D55007AC
:1034E00001D50AF011FB0DF11F00FFF739FC9DF922
:1034F0001F202B68214602922A7B42330192FF2231
:103500000092002268680FF053FA0320D9E70A20DE
:10351000D7E700BFB8100020644D81682A68807C1E
:103520000EF0ABFF92F854306E68074692F8489060
:10353000590796F806A096F807B089F0010940F1FE
:103540008E8092F84B30002B00F0898092F84C600E
:10355000082E00F08680304603F05AFA49EA00004F
:103560005FFA80F9002F7ED03046A16803F086FB19
:1035700006462B6893F8542093F84180520749D5AA
:10358000626893F85B10107888426ED1507893F897
:103590005C10884269D1907893F85D10884264D1BC
:1035A000D07893F85E1088425FD1107993F85F105D
:1035B00088425AD1517993F86020914255D1627C6A
:1035C00093F85A10501A42424241696849790829D1
:1035D0004DD093F84C30591A4B424B41002E48D1F4
:1035E000B9F1000F47D02046CDE90423FFF7A6FA32
:1035F000DDE90423BBF1000F0AD0296891F85610C9
:1036000001294ED021B9002A4BD108B1002B4AD153
:103610000AF07AFA2B6893F854309B073FF4B9AE5E
:103620000AF072FABAF1000F3FF4B3AE2046FFF78A
:1036300085FAD5F8009000B9FEB10DF11F0048EAF7
:103640004608FFF78DFB9DF91F3002932B7B0193FA
:103650005FFA88F30093012209F14203D2E67679FA
:1036600076E7002685E73E4683E70022ADE70023A4
:10367000B4E70120BEE73046BCE799F85530023B7D
:10368000012B3FF686AE002F3FF483AE0DF11F00F5
:10369000FFF766FB9DF91F3002932B7B0193FE23FE
:1036A000D8E70028B4D00A2095E600BFB810002063
:1036B00030B58BB00546FFF739FA114B1B6893F80C
:1036C000543013F0060F04D001229621002013F08D
:1036D000F7FB2C786946284604F00F0422460FF0C9
:1036E0008CF9002221466846FFF752FD21466846C4
:1036F000FFF722FE0446FFF7A9FB20460BB030BDC2
:10370000B810002038B5154D2C6894F84830F3B146
:103710006FF00043D4E920129A4208BFB1F1FF3F95
:1037200015D013F072FCD4E92023904299410ED3B6
:103730002B6893F848305BB92D6803F0A9F904466B
:1037400013F063FC064BE4FB0301C5E9200138BD1F
:10375000012003F05FFA0028F9D0EDE7B81000204F
:1037600040420F0010B50446FFF722FA237A032BDC
:1037700004D140F62E113220FDF740FC0BB9FFF7C3
:10378000B1F9064B1B6893F958000AF003F9FFF7EB
:10379000E5FBBDE81040FFF7B5BF00BFB810002043
:1037A0002DE9F8436A4D002307468946A868D5F8F5
:1037B0000080037043700AF0CFFA064630B9002645
:1037C000032003F003FD3046BDE8F883AC68032F07
:1037D000237833D123F00F0343F0030323700C232A
:1037E0006370D8F87830A868C0F80930B8F87C3031
:1037F000A0F80D3098F87E1011F033F90021A86878
:1038000013F06BFB2B6893F8482003F1420993F8FF
:103810004180002A77D14C4623684146A868C0F809
:103820000330A388A0F8073011F012F9494BD3F800
:103830000C32002B7CD00AF067F9C0E723F02F038D
:10384000222243EA4913627043F0050323702B6878
:103850001A6DD2F8CC20C4F80F201A6DD2F8D430EB
:10386000190AE3741B0C2175637592F82A11B2F8DA
:10387000DC30002941D06420B3FBF0F3A375D2F80B
:10388000D83000293CD06421B3FBF1F3E375C3F3D6
:103890000723237692F82911D2F8C80010F039FFD7
:1038A00029686076000AA0760B6DAC68B3F8D0206A
:1038B000E276120A2277B3F8D2206277120AA27750
:1038C0009A69C4F81F201B7F94F8242084F82330C1
:1038D0000B6D22F01F0293F8233003F01F031343F4
:1038E00084F8243002F080FD94F8243003F01F03A4
:1038F00043EA401384F8243073E740F2E240BBE728
:1039000040F2E241C0E793F8542052070DD593F8F6
:103910004B2052B193F84C0003F0EAF9044600281A
:103920003FF479AF4FF0010876E76B685879F3E719
:10393000052F7FF448AF2B6821681A6DC2F8B410C8
:10394000A188A2F8B8101B6D83F8B3803BE700BFD5
:10395000B810002000A0085010B500210320FFF788
:103960001FFF18B9BDE81040FFF78CBA074C0321C0
:1039700020680FF01DFA0028F4D0012108460AF053
:103980008BFA636809221A7110BD00BFB8100020BD
:1039900070B5164C636818680FF008F8064620B931
:1039A00040F261513220FDF729FB63680A220021B1
:1039B00020681A7100F0AAFE236805201B6DDD7DCA
:1039C0003378C3F340131D402946FFF7E9FE18B9C9
:1039D000BDE87040FFF756BA042120680FF0E8F9FF
:1039E0000028F5D023681B6DDD7570BDB810002070
:1039F000036D10B5044623B940F261313220FDF762
:103A0000FDFA022207494272B3F8AA304381FF232C
:103A100080F827304FF6FF73038511F000FB002379
:103A2000236510BDD7240200F8B5194F064602F0F1
:103A30005FFC0121B8600020FDF7F0FE054620B9CB
:103A400040F685013220FDF7D9FA4FF4C07200210B
:103A500013F035FF01210846FDF7E0FE044620B1D2
:103A60004FF4C072002113F02AFF7B6913B940F6AE
:103A70008F01E7E730460EF014FE28460FF089F973
:103A800024B12046BDE8F8400FF083B9F8BD00BF6F
:103A9000B8100020014B024A5A617047B81000204C
:103AA000BC3B0100036810B523B940F67711322002
:103AB000FDF7A4FA044A13606C3353605369BDE800
:103AC00010401B68184700BFB810002008B5044B11
:103AD000586800F079FBBDE80840FFF7D3B900BF94
:103AE000B810002038B5044690F8400000F0FD0002
:103AF00004F14201003818BF012084F8410002F0AF
:103B000073FE94F84030023BDBB2012B94BF0123DB
:103B1000002384F8483015D802F0BAFF054613F0A8
:103B200074FA094BE5FB030194F84830C4E920011D
:103B300043B1002003F06EF820B940F62121322075
:103B4000FDF75CFA38BD00BF40420F000149363036
:103B500011F068BAB5240200112E0100C93001002D
:103B60005D300100CF2602006D2B0100B12E010057
:103B70001726020005260200212B0100852E0100D8
:103B8000A92402005D2F0100A9240200A92402003B
:103B9000A9240200A9240200A92402005939010025
:103BA00091390100A9240200A9240200B1360100C4
:103BB000852D01003B2602002D26020065370100FD
:103BC000683B0100703B0100783B0100AC3B010009
:103BD000B43B010008B5431EDBB231B1032B08D959
:103BE0004FF4EA713320FDF709FA032B02D8034A98
:103BF000D05C08BD4FF43F710620F4E7CA1D0500F4
:103C000008B50EF02BFB054AD2E84F3F0133DBB27B
:103C1000C2E8413F0029F7D108BD00BFD010002005
:103C2000024BA0F108015868FFF7EABFD01000204E
:103C30002DE9F84F1E463C4B0D46934600211A785D
:103C400004689DF828709DF82C809DF930909DF8AF
:103C500034A0016032B9A4F108015868BDE8F84FFA
:103C6000FFF7CEBF1A2204F1090013F028FE01234A
:103C7000A372BBF1060F4FD8DFE80BF00433394EC7
:103C8000434E3D00E37A23F0130343F01303E37242
:103C9000012304F10E0241462846237547F6FF73BF
:103CA00084F81890E38204F10D030EF053FEE37ADA
:103CB0005B0736D5BA1E04F11C03012A8BBFAA6824
:103CC00032681168E2618ABFE161B28892889A80A5
:103CD000E7760023237215492046BDE8F84F11F01E
:103CE000A1B9E37A23F0150343F01503CFE7E37A94
:103CF00043F01003CBE7E37A23F0120343F01203FF
:103D0000C5E7E27A4AF01A0A22F01B020AF01B0AFF
:103D100042EA0A02E272BBE740F246413320FDF775
:103D20006DF9FF23E376D4E7D0100020313D010088
:103D30002DE9F04F05468DB00C4600200121FDF71E
:103D4000A9FD064620B94FF4F1713320FDF756F96D
:103D5000A8300FF020F818B196F85430042B2ED16B
:103D600030460EF073FC50BBB84C04F1080604F169
:103D70000C07AB6A93B92846FFF752FF4FF4007364
:103D8000ADF804309DF80430002063F307009DF87F
:103D9000053063F30F200DB0BDE8F08FA96A0B6802
:103DA000B142AB624FF000030B704B708B70CB7065
:103DB000DFD0B942DDD06068FFF722FFD9E7AF6AF4
:103DC00037B3A34B9F4226D0043B9F4223D007F139
:103DD0003B0A4FF0000802F099FA8146B8F1000F53
:103DE00040F0058102A950460EF09AFEB9F1000F8D
:103DF00016D004F10D00EE7A16F0100613D09DF8DF
:103E00001860059932460CF085FF4FF0010828E054
:103E100005F1330ADDE74FF001084FF0000ADAE759
:103E200004F11C00E7E7002FEFD09DF80830022BCB
:103E3000EBD0014695F83230E522504610F04CFFA9
:103E400095F8323006460344504685F8323010F07B
:103E50003BFF95F83280A8EB0000D0F1000848EB5A
:103E60000008B9F1000F00F0C680EB7AD90604D43F
:103E70005B216AE7C8460026F7E713F0040FAA7A29
:103E800095F80DC04FF03E0304F1060105F10E0058
:103E900033D095F81BE0BEF1FE0F2ED123700B231B
:103EA000E270A370130184F805C00233637001232C
:103EB0002371D5F80E30C4F8063083888B8084F8DF
:103EC0000CE0EB69C4F80D302B8CA4F811302B7E7C
:103ED000E3745E4E06F1080A57453BD1237902226E
:103EE00005F1280062F3461323710EF04FFD0227FF
:103EF0002846FFF795FE04263FE023700223E27078
:103F0000A37006F10A0384F805C0534302336370BB
:103F1000D5F80E30C4F8063083888B80267326448B
:103F20002B7E7373EA7A12F0080102D00423237106
:103F3000CFE702F00303032B01D12171C9E7520738
:103F400001D50123F3E7022BF1D00BB90323EEE7F0
:103F5000A421FAE606F10C094F4515D105F1280018
:103F60000EF014FD6A7D6AB92379042662F34613C4
:103F7000237102272846FFF753FE8DF804608DF861
:103F80000570FFE60026F4E747B3B8F1000F20D034
:103F900005F1280840460EF0F9FC39467068FFF735
:103FA0002FFEAB6A0022534585F8322096D04B4550
:103FB00005D12379404662F34613237195E79DF8B6
:103FC0000830022B05D1237923F0680301272371E0
:103FD00091E72379012262F34613F7E7EE7A16F0B0
:103FE0001006CAD0237967F3461323717FE70028B0
:103FF0007FF440AF06468E2305F12301237006F1BE
:104000001803AA7A5343E270221D0233637005F14C
:104010000B0353F8040B8B4242F8040BF9D195F8CB
:1040200014A095F815B002F0AFF9C1F3402950463D
:104030004946FFF7CFFD6073BBF1000F04D049463E
:104040005846FFF7C7FDA073E67642E7D010002080
:10405000DC100020343270B5054692B20C461E4684
:104060000EF0C4F825B1034A5560147456741470E8
:1040700070BD00BFD010002010B5034C60680EF07A
:10408000D7F8237C237010BDD0100020014B587C42
:10409000704700BFD010002038B5134D68680EF08F
:1040A000CDF8044620B940F257113320FCF7A6FFA3
:1040B000D5E84F3F013BDBB2C5E8413F0029F7D1CE
:1040C00004F108033422184613F0F9FB47F6FF7297
:1040D0000121E462E283FF22627584F82320E27CFE
:1040E00061F34612E27438BDD010002038B5436A3F
:1040F000044693B90A4D68680EF0A0F8606220B9D2
:104100004FF4B8713320FCF779FFD5E84F3F013BFE
:10411000DBB2C5E8423F002AF7D1606A3B3038BDC8
:10412000D0100020036810B504468BB19A6A22B102
:1041300040F28D113320FCF761FF596A41B101F162
:1041400008008342074B08BF22605868FFF758FDFC
:10415000216831B1034B08395868FFF751FD00233E
:10416000236010BDD010002038B5046805469CB10E
:104170001349204610F05FFF124B00221A735A7346
:104180009A73DA73EFF3108272B6A16A0C3399B99D
:10419000A362E36202B962B62C68616A49B101F1B7
:1041A00008039C4203D0074B5868FFF729FD002302
:1041B000636200232B6038BDE16A0B60E9E700BF52
:1041C000313D0100D010002070B50668044656B39A
:1041D000716A154D41B101F108039E4202D0686831
:1041E000FFF70EFD0023736221684E7DB6B10023F8
:1041F0002B726B72AB72EB72EFF3108272B6886A3D
:104200000A4B40B98B62CB6202B962B62046BDE868
:104210007040FFF7A9BFC86A0360F4E7083968680F
:10422000FFF7EEFC266070BDD0100020D8100020F3
:1042300010B504460246064900F58C7013F00FF8DD
:10424000224604F5A4700249BDE8104013F007B8F7
:104250009F2E02007FB590F8142102F0FF0322B1D7
:1042600040F2A5212120FCF7C9FE0C78039314F03D
:10427000010218BF8D68CDE9013318BF019514F014
:10428000040529D004ADCE6805EB820545F80C6C19
:10429000154680F845514A68124DC0F8C820C0F84C
:1042A000F82040F27122A0F8FC20032215F8011B2F
:1042B0000C420BD004A900EB830601EB8301013310
:1042C00051F80C1CDBB21639C6F8CC10013A12F0CA
:1042D000FF02EBD104B070BD002ADAD140F2BE215A
:1042E000C0E700BFDA1D05002DE9F04F04468FB08E
:1042F0009B469246BDF86070039112F086FE8046A0
:10430000204604910EF059FCD4F8CC900546BBF140
:10431000000F00F0D781BAF1000F00F0E48083466F
:1043200018F5FA630593049B43F10003069303F029
:10433000EFFE064604F1E8003146079003F0BAFEAE
:10434000D4F8101111B107980EF079FDBDB1D4F871
:10435000F050BEB1B0682A46D6E90031C018059BBE
:10436000009341F10001069B019311F099FC8542F5
:10437000034608D240F24D312120FCF73FFED4F82D
:10438000C850E6E73346059AD4F8C8009D18069A47
:1043900042F10006002F00F0A180BFB242F2107C73
:1043A00029463246E7FB0C1200F2CF773B44B3FBC1
:1043B000F0F34343EB1A66F10000C4E92A12C4E9A2
:1043C0003A300027E319204693F87C110EF0DAFB0F
:1043D000D4F8A830D4F8AC105A1B0590069361EBC2
:1043E0000600012A70F100034FF00003C0F259816A
:1043F0009145834100DB914604EB8707D7F8CC70E9
:104400004F4528BF4F46C4F8DC70BAF1000F05D005
:10441000D4E93A23C4E92C56C4E93023059B20464D
:10442000039AC4F8D83004230791C4E92E56537276
:104430002A4633460EF0D7FB039B059A18725A6042
:10444000BBF1000F00F038810123039A0799137024
:10445000069B049AB3EB080361EB0202012B72F195
:1044600000004FF00000C0F21E81A74E9E42904116
:1044700000DB1E46D4F81031D4F8C890002B40F071
:10448000178107252046A9FB055A0EF096FB002848
:1044900000F00B81D4E92C32ED184AEB0203A84559
:1044A000049A9A410FD2B5EB0805049A63EB020314
:1044B0006FF00102AA424FF000029A4102D3AE42CD
:1044C00028BF2E46B146039BC3F81090059B9F4220
:1044D00034BF002001200FB0BDE8F08F4FF0FF3156
:1044E0006FF0004260E7002838D06FF00043D4E955
:1044F0002A129A4208BFB1F1FF3F2AD094F8443102
:104500002046234493F87C110EF03CFB18F19802EE
:10451000049B0546099008A843F100038DF820A0EC
:10452000CDE90C2340F20243ADF8283012F09DFE95
:1045300010B940F296411FE7D4E92A320C995B1A70
:104540000D9962EB01025B1B62F10002002AC0F2CE
:10455000A2804546049E4FF0010B32E7D4E93A268B
:10456000D4F8C850A8EB0203AA18B3FBF5F305FB77
:1045700003F346F100069B18A3EB080246F1000680
:10458000972A05D8ED1846F10006D346574619E795
:1045900094F87C1120460EF0F5FA0423D4F8B820E4
:1045A0008DF82930D4F8C850099020468DF820A005
:1045B000D4E93A13521AB2FBF5F26A43521843F1A6
:1045C0000003CDE90C230EF00EFB29468DF82800E0
:1045D00008A80FF0F3FFDDE90C56D6E751F8042FD9
:1045E000013302F1160CCC459FBF821A013791446A
:1045F000FFB2DAB29645F1D8E319204693F87C1160
:104600000EF0C0FA484404EB8703D3F8CC30834261
:1046100009D3A3EB0909B9F1000F22DA40F24E41A8
:10462000AAE6A94667E094F84511D4F8C820B94233
:104630000FD901379542FFB208D204EB8703D3F8B4
:10464000CC3003F1160299461546E4E74FF4856134
:1046500092E69542F7D352009542F4D340F2454199
:104660008AE6AD192046D4E92C234BF100060EF062
:1046700060FAD4F8C8304FF0000B5843D4E93A320E
:104680001B18204642F10002C4E93A322A4633465A
:104690000EF04FFA96E64546049E4FF0010BD146C8
:1046A00074E79946A8E60646E4E6D4E93032F3E634
:1046B0004FF0FF352B46F2E6039B83F800B0C3E9C9
:1046C000045603E7BAF1000F7FF42AAED4F8C820ED
:1046D00008F19805D4E93A13A8EB0106B6FBF2F607
:1046E00056437618A5EB060543F10003AA429B4604
:1046F00097D8A5EB0209002394F845E104F1C8011D
:104700006FF015001F4674E70040420F01292DE9A4
:10471000F347064605D9022900F099804FF4046159
:1047200050E001F00104D0E92CA709F041F896F817
:1047300078818146204641460FF0BAFF0546404643
:1047400009F086FC0246002C3FD0A8F10203DBB240
:10475000022B3AD8534901EB43031B8A15EB090599
:104760002CBF0121002115EB0A0547EB01074E493B
:1047700051F8280000F2E73010444FF47A72B0FB91
:10478000F2F02D1A67F10007ED1847F1000711F05C
:10479000B0FA5230D6F810812C1A67F10005D8F81B
:1047A000C87003F0AFFC06F1E803834210D03A462C
:1047B000CDE90045D8E9780111F072FA874211D2AB
:1047C00040F261312120FCF719FC4FF4FC73C5E77E
:1047D00098F8290130B13A46CDE90045D6E93A01C9
:1047E00011F05EFA314B1A68D6F81031824293F814
:1047F0002A110ED9D3F8C8603218C3F8D86089B925
:1048000041F66A018842A3F8DC1018D34FF4FA612C
:10481000D8E751B16422B0FBF2F151430246401A8D
:10482000C3F8D8104FF4FA71ECE740F2E242B0FB63
:10483000F2F151430246C3F8D810401AE0E71219CA
:1048400045F10005C3E9782502B0BDE8F087D0F84E
:10485000103113B940F2DB71B4E700255D7390F8B5
:10486000781183F8201183F82111FF2483F8224165
:104870000339D0F81001012900F1E8008CBF0021B4
:10488000012110F090FCD6F8100112F07BF9C6F867
:10489000105186F8164109F093F902B0BDE8F047CF
:1048A0000BF09EBBCE1D0500B0200500E4100020DB
:1048B00008B50B4B30B101280DD040F65301212033
:1048C000FCF79CFB18601A6841F669039A4206D906
:1048D00040F65C01F3E740F6C4121A60F3E708BD46
:1048E000E41000200138C0B2032808B504D94FF401
:1048F0003F710620FCF782FB014B185C08BD00BF2E
:10490000E41D05000138C0B2032808B504D94FF4EE
:104910003F710620FCF772FB014B185C08BD00BF1D
:10492000011E05000138C0B2032808B504D94FF4B0
:104930003F710620FCF762FB014B185C08BD00BF0D
:10494000641E05000138C0B2032808B504D94FF42D
:104950003F710620FCF752FB014B185C08BD00BFFD
:104960005D1F0500014B1868704700BF9C110020B7
:1049700008B5034610465A1E032A10D84A1E032AB9
:104980000DD8084A012951700CBF00210A2110716D
:10499000937091721946FDF787F9002008BD6FF0FA
:1049A0001500FBE71E010020074A537A40B143F08F
:1049B0000403002953720CBF00230723537170476F
:1049C00003F0FB03F5E700BF1E01002040EA4100B1
:1049D000014BD870704700BF1E01002010B504467F
:1049E0000EF0E7FB08B9002010BDE0430EF0E1FB3C
:1049F0000028F8D0E31683EAA4635A1E1A42F2D0C4
:104A0000E3B25A1E13405A1E1342ECD0A0B210F06B
:104A100007FD0B28E7D8204610F0FEFC1828E2D846
:104A2000A3B2B3EB144F04D184EA142313F0FF1F95
:104A3000D9D0044B6340581E1840003818BF0120DD
:104A4000D2E700BFD6BE898EF0B5070C164BA7F58E
:104A5000AA4203EA9023543A012A20D927F40040BD
:104A600042F6AA22801A18BF0120002216211F2414
:104A7000164687EA060562EA0505013511D0DD0311
:104A800001394FEA5303ADB245EA56064FEAC43541
:104A90004FEA5404ADB245EA5202EAD1F0BD00201B
:104AA000E3E70020FAE700BFE0FF3F0070B50D46E6
:104AB000BDF818400646BDF81410AC421046BDF8CB
:104AC00010201BD8B5F5486F18D8844216D8B0F519
:104AD000486F8CBF0024012496B91A4E367C96B1DB
:104AE0009CB96FF4506C05EB0C06062E04D86FF4DD
:104AF00050668619062E08D9204670BD0024EBE7C3
:104B000096F88160EBE7002CF6D0854217D803FBBE
:104B10000111B1F5FA7F12DCA2F10A0340F67644E6
:104B20009BB2A3420BD80EF04BFC42F210734143F0
:104B30005A43B2EB410F8CBF01240024DCE7002470
:104B4000DAE700BFA8110020304BF0B5B0F86C7068
:104B50000C461146DA88B0F86A6085B097421D8924
:104B600028BF1746964228BF16461B2E2ED0B5F5F5
:104B7000A47F2DD040F6480301AA9D4228BF1D46C0
:104B80000EF032FCBDF80A30BB4228BF3B46E38042
:104B9000BDF80C30AB4228BF2B462381BDF8063050
:104BA000B34228BF33466380BDF80830AB4228BF0C
:104BB0002B46A380FF232370E3881B3B9BB2E02B93
:104BC00008D940F209513920FCF718FA1B2FCED131
:104BD00005B0F0BD63881B3B9BB2E02B02D940F2CD
:104BE0000B51F0E7238940F64812A3F5A4739BB25A
:104BF000934202D940F20D51E5E7A388A3F5A473CF
:104C00009BB29342E4D940F20F51DCE7A811002097
:104C1000F7B5002304460E461746CDE90033684633
:104C2000FCF772FE08B100201AE0009DA542F6D004
:104C3000304605F1AD030EF0A3FB394695F8AC20E4
:104C40000FF067FC0028EAD005F1B40395F8B32013
:104C500004F1B40194F8B3000FF05BFC0028DED03F
:104C600003B0F0BD054A516A02F11D03127F11F82D
:104C7000030BC0F380100FF04CBC00BF18170020CE
:104C8000012817D80D48824216D8012B0DD140F2C9
:104C900052739A4210D9A1F6C410094B98420BD80E
:104CA0008A428CBF122000207047042BF3D140F6BB
:104CB000C313EEE712207047302070478FFD70025B
:104CC000CBF3700210B504460A480DF010FE0A49F5
:104CD0002046FFF7BFFA20460DF039FD38B12046D7
:104CE000FEF700FF20460DF0FFFD002010BD122052
:104CF000FCE700BFE0110020E81100202DE9F04F93
:104D0000994687B07F4B04460DF110087E4D186818
:104D10000F461B791646049088F8043095F86A30DF
:104D200013B1404602F04AF8394620460FF036FDEE
:104D3000AB69C4F8E83096F84A2006EB4202B2F8B4
:104D40002AA050460EF03CFB01466FF45060002351
:104D50008244BAF1060F7BD9908C4FF0961284F8FA
:104D60002A31A4F8E430C4F8E02040F2E2420EF028
:104D700027FB03F013FA40F2E243014604F1A80ACC
:104D8000A4F8F431C4F8C810C4F8F011504611F07A
:104D9000CFFE834601F0F8FA8306A97B53BF1B239D
:104DA0006B88AA881A46A4F81231584BA4F814212B
:104DB0001B6884F8F010A4F8F2B01BB194F9281124
:104DC000384698472B7C03A80394003B18BF012367
:104DD00084F829310EF0EBF94D4B1B681BB14D499E
:104DE000B4F8AA0098470123A4F8DE304A4B1B68A8
:104DF0001BB14A49B4F8AA009847494B1B681BB13C
:104E00004849B4F8AA009847474B1B6813B1B4F857
:104E1000AA009847454B1B6813B1B4F8AA009847FD
:104E2000AB8804F1C0006A886978033303320191CA
:104E30009BB2297892B2009104F1C401FCF79CFD69
:104E4000D4F8C03083B940F6F4713920FCF7D6F8B5
:104E50004FF04D12A4F8E4300123C4F8E02084F8A8
:104E60002A314FF47A7389E7D4F8C43013B940F685
:104E7000F571EAE70EF064FAC4F8CC00B9F1000F5E
:104E800005D002F011FA20F07F40C4F8D40096F863
:104E90004A302046E96906EB4306338EA4F8D03049
:104EA000F38EA4F8D23011F040FE414604F1170011
:104EB0000FF024FD95F86A3013B9FF2384F83D32D2
:104EC000EB6E23B1012204F59771504698471849BB
:104ED00050460FF0DAF802F0E7F90C23B0FBF3F2DA
:104EE00002FB1300C0B2431DDBB2082B9CBF0D3088
:104EF000C3B2204684F823300FF07FFC07B0BDE832
:104F0000F08F00BFEDA30500A8110020781C002041
:104F1000701C0020D01100208C1C002006120020E4
:104F2000801C0020F8110020841C0020881C002018
:104F3000B211002010B503210020FCF7ABFC0446A1
:104F400070B90321FCF76AFC044620B940F2253110
:104F50003920FCF753F8034B93F9701011F036FA2F
:104F6000204610BDA8110020014B5888704700BF93
:104F7000A8110020044BD87BC0F3400080F0010052
:104F800000F00100704700BFA811002038B50FF0F5
:104F9000BFFA002501F048FD214C01F00DFA10F098
:104FA0001FF803F02BF801F029FF07F067FF01203D
:104FB00001F0A6F91B4B1C4A29461D604FF01B133C
:104FC000A4F86850A58184F83650E573C4E900233D
:104FD0004FF4A4731022A3604FF479432361134B61
:104FE00058681B89A06304F14000A38712F067FC96
:104FF000012342F2107204F15E0084F840306375C0
:10500000C4E9112211F0FFFE04F1500011F021FF5C
:105010000022002384F88050C4E91E2338BD00BF5D
:10502000A8110020681C002003021B00011E0500BF
:10503000064B41F64C521B211A629973C3E90622B2
:1050400041F288325A62FFF7A1BF00BFA8110020C9
:10505000F0B53D4D85B000F1A8070446AB69C0F836
:10506000E8302B7C003B18BF012380F82931374BF7
:10507000C0F8C830384610F0B5FF064601F084F994
:105080008306A97B53BF1B236B88AA881A46A4F802
:1050900012312F4BA4F814211B6884F8F010A4F8E7
:1050A000F26023B194F92811B4F8AA00984703A834
:1050B00003940EF07CF8274B1B681BB12649B4F80B
:1050C000AA009847254938460EF0DFFF0123A4F8CF
:1050D000DE30234B1B681BB10021B4F8AA009847AF
:1050E000204B1B681BB10021B4F8AA0098471E4B47
:1050F0001B6813B1B4F8AA0098471C4B1B6813B186
:10510000B4F8AA009847AB8804F1C0006A886978AF
:105110000333033201919BB2297892B2009104F1DA
:10512000C401FCF729FCD4F8C03023B940F2E241B5
:105130003920FBF763FFD4F8C43013B940F2E341E0
:10514000F6E705B0F0BD00BFA811002000093D0042
:10515000781C0020701C0020D0110020B21100200B
:105160008C1C0020801C0020841C0020881C002037
:105170002DE9F34104460E4611F069F9002800F0CC
:105180009680204611F09DFA40B1B6F80130013BFF
:105190007F2B03D9122002B0BDE8F081204611F028
:1051A00094FA08B90C20F6E7204610F0D2FF002848
:1051B000F8D1204611F0F4F880460028F2D12046BC
:1051C00004F01EFD0028E5D042F21073B6F801701D
:1051D000F17820465F4311F05DFA04213078FCF746
:1051E00059FB054606213078FCF754FB2DB140B140
:1051F00041F676213920FBF701FF18B3054690F8F8
:10520000E5802C4E3368EBB14035284610F03FFD69
:10521000C0B1284610F02CFDA0B9B8F1000F07D09E
:10522000254B28461B68984760B141F68A21E1E783
:105230002249424633682846096A984710B141F628
:105240008F21D7E7204611F034FA014638B93A46A3
:10525000204603F0CFFC40B341F69821CAE7022173
:105260000DF10600FCF7A2FA054608B90D2092E7F9
:10527000BDF806100FF0D0FA2946204611F055FA75
:105280002846FFF7E5FE3A462946204603F0B2FCE1
:10529000024610B141F6B421ACE7084BDB6E23B1F6
:1052A00005F5977105F1A8009847002073E74220A3
:1052B00071E700BF6C1C0020741C0020A8110020A6
:1052C000024B1B6803B118470C207047681C002074
:1052D00008B507F09DFD0EF0D6F8024B83F870007C
:1052E00008BD00BFA8110020014B93F97000704762
:1052F000A8110020F7B5074610460D461E4607F0D8
:1053000087FD0EF0C0F80446042F04D8DFE807F04C
:10531000062649293300122003B0F0BD00F0F6FF45
:10532000A0B19DB9FFF706FE214611F0BDF900219D
:10533000E8B211F034FD10B1214611F044FD1EB168
:10534000204607F053FD30700020E5E70321284692
:10535000FCF7A0FA0028E7D14220DDE70DF081F943
:10536000EDE707212846FCF795FA0028E7D021460B
:1053700011F02BFDE3E70A212846FCF78BFA002801
:10538000DDD090F83830032BC5D1D0F89850002DDF
:10539000D5D0F83D2146284611F01DFDD5F8F8502E
:1053A000F5E701A928460FF0C8F90028B4D1074B4A
:1053B0001B681BB9019B83F82841C0E701222146E5
:1053C00001A898473A28F5D1A6E700BF7C1C002029
:1053D000034B5A8802801B7883700020704700BFFF
:1053E000A811002073B5837806461A2B08D8042B21
:1053F00004D9334A22FA03F3DB0705D412251AE055
:10540000292B01D03B2BF9D13088B0F5706FF5D244
:1054100069460FF092F988B9009B93F82C2102F0AD
:10542000FF05C2B9B27883F82D21FF2283F82C2121
:1054300068460EF02EF9284602B070BD092130886A
:10544000FCF728FA0446002837D001A9B0F8AC01CF
:105450000FF073F908B10C25EDE70821B4F8AE019F
:10546000FCF718FA20B94FF404613920FBF7C6FDA8
:1054700003781BB994F8C831032BECD1019B93F846
:105480004221002AE7D194F8F02102F0FF05002A1A
:10549000E1D1B4F8B021A3F8442194F8B82183F8FD
:1054A0004621027D83F84721B27883F8482184F8A9
:1054B000F021FF2283F84221BDE70225BBE700BFB0
:1054C000200038040188A1F11B039BB2E02B0CD80B
:1054D000428844F24810A2F5A4739BB2834204D8D8
:1054E000034B0020D9801A8170471220704700BFFB
:1054F000A811002038B50278447802F0010302F0C8
:10550000020254EA030101D1112038BDBAB98578ED
:10551000002DF9D0002B18BF002400E01D462046C6
:105520000DF0BCFF0028EFD028460DF0B7FF002893
:10553000EAD0054B00209C72DD729881E5E7002BD4
:10554000ECD000242546EAE7A811002013B5008816
:1055500001A90FF014F9044620B9019890F83E31E2
:105560001BB13A24204602B010BD90F85C3003F025
:10557000FF04002BF5D190F853309B0706D1FF2391
:1055800080F83E3101A80EF084F8EBE70249543070
:105590000FF04EFDE6E700BFD35B02002DE9F047B8
:1055A00003780446032B03D912252846BDE8F0876B
:1055B0004378032BF8D8437E8578002B4FD1012DFB
:1055C000F2D100F0EBFE854340F0928094F8028027
:1055D00018F0010506D001232269A168E078FFF7E1
:1055E0004FFB054618F0020F07D002232269A1687D
:1055F000E078FFF745FB2843C5B218F0040F7BD0D5
:1056000094F803A00423D4F8089022695046494630
:10561000FFF736FB284310F0FF05C6D1B8F1050FA0
:105620000ED194F804800423E16862694046FFF7D4
:1056300027FB05460028B8D1C24559D1894557D125
:10564000237E013B062BAFD801210020FCF722F975
:10565000054650B940F642413920FBF7CFFC6B1E9E
:10566000062BA1D8AA079FD4ABE7A8300DF093FB77
:1056700018B195F854309B073CD1657EE278003D27
:10568000A078A16818BF0125012AB4F800E000F055
:10569000040314BFB2FA82F2022294F818C018BFB1
:1056A000520910F0010F1FD026695BB16769F31929
:1056B000994207D24B089E4228BF1E468B1B9F4231
:1056C00028BF1F460E4B83F83D50002583F8380055
:1056D00083F83920A3F83AE083F83CC083F840000F
:1056E000DF64C3E9111660E7002BEBD02769E9E717
:1056F00011255AE70C2558E7002DA1D055E700BF2A
:10570000A811002000B589B0437940F271218DF8CD
:10571000043083798DF8053001238DF80630037845
:105720008DF80730B0F801304B430393B0F80320F5
:105730004A430D4991F83C100592A2F6C4128DF827
:105740001C1000218DF81D1008498A4209D8A3F6C3
:10575000C4138B4205D801A8FFF720FF09B05DF8FC
:1057600004FB3020FAE700BFA81100203C369C0063
:105770002DE9FF4106460078012813D17378012BEB
:1057800003D9022B0CD1B38853B17288B2B1B3885C
:10579000A3B10A214A434FF4A0614B439A420DDB67
:1057A00012247AE00028FBD10121FCF773F80546AA
:1057B000002840F08E8040F69A5107E00121002039
:1057C000FCF768F8054620B940F63F513920FBF751
:1057D00015FCB388002B76D10CF038FF002874D16B
:1057E00095F81431002B72D12846FFF76BFA044666
:1057F0000028D5D10121DFF830810846FCF74AF8AE
:1058000098F81410074619B110B940F65B51DDE75E
:1058100098F838200023CDE9023312F001031CBFB1
:10582000D8F848000290520741BF04AA02EB830354
:10583000D8F84C2043F8082C002941D097F81431AF
:10584000002B3DD07388DBBB98F838303846009386
:1058500002ABD8F8442098F83A100CF0EFFF78B378
:1058600038460DF09EFA07F14003064605F1400266
:10587000683753F8041BBB4242F8041BF9D1284691
:10588000FFF720FA024610B140F682519EE70C2E37
:1058900007D1014628460DF037FC204604B0BDE88C
:1058A000F08116B140F68B5190E798F839302846D0
:1058B000296D43F0040385F854300DF004FCECE747
:1058C000B2887188E6E71124E7E73A24E5E70C247B
:1058D000E3E70DF011FA04460028DED195F85430C4
:1058E00095F8A62022B195F8A720134385F8A600C5
:1058F000053B012BD1D82B6D13B940F6AA5165E7B2
:1059000001210846FBF7C6FF4FF4C0722946064640
:105910000BF000FA002386F894300423316D3046F2
:1059200086F85430C9E700BFA81100202DE9F04FD8
:10593000457A04468FB0A80718D545F00105657271
:10594000072D15D800F02AFD35EA000040F05881F7
:1059500094F848308BB9012D0AD1A369A94AA3F262
:105960005373934200F24A81012609E06907E7D1A7
:10597000122420460FB0BDE8F08F15F00106ECD1DF
:10598000AA0745BF731CB1464FF0FF09DEB26B0793
:105990000AD5B31D9C4A54F82330A3F6C41393428E
:1059A00000F22C810136F6B204F1080704F1220559
:1059B0004FF000085FFA88F39E422BD823789A1E96
:1059C000022A40F21D81012BD2D813B9A378012BF2
:1059D000CED86378032BCBD894F84930013B062B03
:1059E000C6D88A4F01210020FBF754FF3B7D0546B6
:1059F000002B4CD101210846FBF74CFF002818BFB3
:105A0000054605F1A8000DF0C6F90646002858D055
:105A10000C24AEE7994535D0D7F804A03B6953452F
:105A2000A6D86A8B2B8C9A42A2D8B5F814B0012064
:105A30004FF0060C69882A89EB89CDF800B00591F2
:105A4000CDE9010C0020CDE90623FFF72FF800284F
:105A500000F0D480B8F1000F14D02888059988424E
:105A600086D1E988069A914282D1AA89079B9A42F7
:105A70007FF47EAF6B8A5B457FF47AAF3B689A45D3
:105A800040F0BE8008F101080437023592E7A830E3
:105A90000DF081F90028ADD06FF00043D5E92A124E
:105AA0009A4208BFB1F1FF3FA4D1637A2846009320
:105AB00004F11803E26861780CF0C0FE0646002885
:105AC00098D028460CF0C8FD08B13A2451E7284682
:105AD0000CF0BCFD0028F8D1FB7C4BB90AAF0A934F
:105AE0007B6006238DF82E303846FBF70DFF68B338
:105AF00000210DF12600FBF759FE074600287BD058
:105B000001232246BDF82610FFF7F8F8384611F0B9
:105B100024F81EB9617828460CF04BFE04F1030806
:105B2000A2782178284643460CF0F0FD00286FD17A
:105B300012240021B7F8AA00FBF7C2FE00283FF4A8
:105B400018AF41F288213920FBF758FA0A9B93F8E5
:105B5000CD20802AC8D093F8E530002BC4D057E779
:105B6000637A8DF8286013F00102E16818BFA0691C
:105B70000B911EBF0C9001208DF828009E0744BF9A
:105B80000132D2B258071BD59DF82800063203F027
:105B9000050354F8222040F00400052B0D928DF8E7
:105BA00028000DD10C981318994209D24B08834252
:105BB00028BF0346C91A0C93914294BF0D910D92D0
:105BC0000AA92846FEF746FB94F8481028460039F3
:105BD00018BF01210CF097FD94F8491028460CF0ED
:105BE00078FD28460CF080FE394628460DF06BFA09
:105BF0000024BEE60B249CE70D24BAE63024B8E668
:105C00001124B6E63CF67002CBF37002A811002016
:105C100016B92846FDF766FF21784346A278284644
:105C20000CF0D4FD94F8099000F0B8FB09EA0001EB
:105C3000284601F005010CF04FFD16B9042385F844
:105C400054302F654246A0780DF09AFB0146284655
:105C50000CF0D7FD237833B94246A1783846FEF7D9
:105C6000D7FF0028C6D1002E3FF47AAF0421284682
:105C70000CF076FD0028BBD10C245AE710B543790F
:105C800094B0032B57D823F00203027940F271211C
:105C90008DF80630D0F806308DF80420CDF80730A6
:105CA0004389027BADF80B3001238DF805208DF878
:105CB0000D3003884B43049342884A430792A2F66F
:105CC000C412847B417B41EA0421ADF82810047C96
:105CD000C17B41EA0421ADF82E10847C417C41EA6D
:105CE0000421ADF83410047DC17C41EA0421ADF8F3
:105CF0003A10417D847D41EA0421ADF84010C17D18
:105D0000007E41EA00210E48ADF8461000218DF8D2
:105D10004C108DF84E100B4990F83C008A428DF8DB
:105D20004D000AD8A3F6C4138B4206D801A8FFF78A
:105D3000FDFD14B010BD1220FBE73020F9E700BFD5
:105D4000A81100203C369C0073B506230025CDE940
:105D500000558DF806306846FBF7D6FD08B10026E1
:105D600010E0009D95F8CD30802BF4D095F8E560DB
:105D7000002EF0D095F83131002BECD195F8CC30D5
:105D8000002BE8D101210020FBF784FD044620B957
:105D900041F2BB213920FBF731F9A8300CF0FBFFB1
:105DA000224B1B7D73B3E0B194F85430053B012BBB
:105DB00017D820460CF0F5FF054610B141F2C62178
:105DC000E8E72046FDF714FE94F854302A462946A9
:105DD00023F00403204684F854300DF095F9002593
:105DE0000DE001210846FBF755FD044610B941F2CC
:105DF000D221CFE7A8300CF0CEFF60B90C252846A1
:105E000002B070BD28B9002EF8D0FF2385F8CC3041
:105E1000E5E7002EF9D120460CF0C3FF0546002827
:105E2000EDD12046FDF7E4FDE9E700BFA811002011
:105E3000F7B5067804460F46EF2E03D912263046F2
:105E400003B0F0BD90F901204378002AF6DB827898
:105E50009207F3D113F010001DD19D0603F0030249
:105E600016D5002AEAD11907E8D42179E278E57934
:105E700042EA0122617942EA0142A17941EA05211F
:105E8000257A41EA05418A42D8D81F2A12D8D5E797
:105E9000032AE8D1D2E713F0600FCFD103F0070255
:105EA000052A05D003F00F010D22CA40D207C5D53F
:105EB0001D07DAD5627A013A062ABFD8A27A032AE8
:105EC000BCD813F0040302D1023A012A03D8E27AC3
:105ED000012AB3D813B9A37C032BAFD8237DF8B123
:105EE000012BABD1237E012BA8D818B36378D90737
:105EF00002D500F0A5F920B36378227D03F01803E2
:105F0000082B2ED1022A1CD103213046FBF7C2FCFC
:105F1000054660B310F01DF9002834D00C268EE73A
:105F2000022B8BD0A37D013B022B87D8E37D0F2B67
:105F3000D8D983E700F032FA820707D4237D022BF9
:105F400001D111267BE7A37D022BFAD000F026FABF
:105F50004307CBD4237D032BF3D0A37D032BC5D1E3
:105F6000EFE7022AD0D0237F002BCDD0E9E7032131
:105F70003046FBF753FC0546002843D0224B93F9EB
:105F8000701010F023FA0021304610F008FF28BBF3
:105F9000284610F08BFB21463870E074284610F03C
:105FA00084FAE37E0646002B3FF449AF00287FF4D5
:105FB00046AF0246E96C6846FBF7BEFD3246E86C28
:105FC00001210CF087F9E96C68460422FBF7B4FD67
:105FD00032463146E86C0CF07DF930E740300FF086
:105FE00056FE0028D4D0637813F0330F7FF426AF29
:105FF000A67D2846296A10F077FBFEF783FC8642CF
:10600000C6D08BE707261AE7A811002030B5027921
:106010008BB00346042A4FD84088B0F5804F4BD848
:10602000264900241144ADF800408DF808408A7CD0
:106030004D7B42F010028DF8244042EA4502CD7DAE
:10604000097F42EA850242EAC102694602F01F0264
:106050008DF80020BDF80020ADF809201A888DF8D1
:106060000E00000A8DF80B20120A8DF80D408DF8F5
:106070000C208DF80F008DF810405A7BD3F80700E4
:106080008DF811205A79059002A88DF812209A797E
:106090008DF81320B3F80B209B7BADF818208DF8FA
:1060A0001A307F238DF81B304FF00113CDE90734F0
:1060B000FFF7BEFE0BB030BD1220FBE7011E05004E
:1060C0000278034672B1427862B142881A2A09D92D
:1060D00082881A2A06D90068034A106000209B882B
:1060E0009380704712207047A8110020026800209A
:1060F000014B9A61704700BFA81100200268002080
:10610000014BDA61704700BFA81100200378A3F1AA
:106110000A02112A9BBF024A002012209373704783
:10612000A81100200378FF2B15D14378FF2B12D143
:106130008378FF2B0FD1C378FF2B0CD1037923F089
:10614000E0021F2A07D11F2B05D05B09034A00205C
:1061500082F83C3070471220704700BFA811002021
:10616000014B587400207047A8110020014B98740F
:1061700000207047A8110020024B1B6803B118478C
:1061800011207047901C002008B5052000F0C4F8CD
:1061900010F0CDFD014B024ADA6608BDA8110020BF
:1061A000494B010008B5052000F0B6F805F09AF952
:1061B000014B024ADA6608BDA8110020494B0100D4
:1061C00008B50122054B1A7103F004FD04F02CFB05
:1061D0000DF01CFFBDE8084000F000BF2C120020AD
:1061E00010B5064C064904F108000DF0A2FE04F1BA
:1061F0000C000449BDE810400DF09BBE2C1200209D
:10620000D0000020D800002010B5094C094904F145
:1062100008000DF08EFE04F10C0007490DF089FE18
:1062200004F110000549BDE810400DF082BE00BF2A
:106230002C120020E0000020E8000020F0000020E8
:10624000014B1879704700BF2C12002010B50A4C82
:10625000072000F061F8094904F108000DF069FE1B
:1062600004F10C0006490DF064FE04F1100005492C
:10627000BDE810400DF05DBE2C120020F80000209B
:10628000000100200801002038B5074C0D4600F041
:1062900079FEA06825600DF044FEFEF7C9FE01F00E
:1062A0001BF80123237538BD2C120020014B187DEB
:1062B000704700BF2C12002010B50C4CE0680DF0A8
:1062C00030FE20690DF02DFEFEF760FE202000F06C
:1062D00037F82F2000F034F8262000F031F829207C
:1062E00000F02EF80023237510BD00BF2C120020F3
:1062F00000487047411200200048704743130020B7
:10630000014B83F8190270472C120020014B93F8BF
:10631000190270472C120020C208074900F007003C
:1063200001238340885C03438B5404490B789342D8
:1063300038BF13460B7070477800002046140020C9
:106340000F4B012110B503EBD002C40800F0070089
:1063500001FA00F0195D21EA0001195509490B788D
:10636000A34205D1002012F8014914B100B10B700D
:1063700010BD002BFAD0013B0120DBB2F3E700BFD8
:106380007800002046140020014BD3E9000170473B
:10639000780000200048704780000020054B1868F6
:1063A000C0F3C022C0F30020400040EA820040F069
:1063B000010070477800002008B508F089FE00232E
:1063C000074A32F82310814205D302EB8302937807
:1063D000044A137008BD01330C2BF2D10023F7E7F8
:1063E000341E050047140020024B1878072828BFE8
:1063F00007207047471400202DE9F04F04689846A5
:106400000F4685B094F86330164604F1A80994F855
:106410000FA043EAD303D90702D4BAF1260F5FD104
:1064200094F8A850002F55D1FFF7B8FF8DF80B0056
:10643000002E51D1FFF7B2FF2B4B8DF80C00D3F893
:1064400000B0BBF1000F0CD0AAF126022846494645
